:100000000C943B000C9458000C9458000C9458002D
:100010000C9458000C9458000C9458000C94580000
:100020000C9458000C9458000C9458000C945800F0
:100030000C9458000C945A000C9458000C945800DE
:100040000C9458000C9458000C94AB020C94D902F8
:100050000C9458000C946F000C9458000C945800A9
:100060000C9458000C9458001504170419041B0430
:100070001D0424042B0411241FBECFEFD8E0DEBFE3
:10008000CDBF11E0A0E0B1E0ECEAFAE002C00590DB
:100090000D92A038B107D9F721E0A0E8B1E001C086
:1000A0001D92A93CB207E1F70E94E0040C945405AC
:1000B0000C9400001F920F920FB60F9211248F9391
:1000C000EF93FF93EAE7F0E0808180648083FF9103
:1000D000EF918F910F900FBE0F901F9018951F9268
:1000E0000F920FB60F9211240F931F932F933F93EC
:1000F0004F935F936F937F938F939F93AF93BF9330
:10010000EF93FF93CF93DF9300D000D0CDB7DEB74E
:10011000009178001091790061E080E00E94330244
:100120004AE0BE016F5F7F4FC8010E941F0561E07A
:1001300080E00E943302CE0101960E944F0266E0E9
:1001400080E00E943302013081E0180709F470C09A
:1001500038F50115110509F44CC00336110509F0F5
:10016000A5C04AE0BE016F5F7F4F83E690E00E942A
:100170001F0561E080E00E94330288E291E00E9466
:100180004F0261E080E00E943302CE0101960E949E
:100190004F0261E086E00E9433028FE391E08CC061
:1001A0000A3981E0180709F462C00F3782E01807A6
:1001B00009F07CC04AE0BE016F5F7F4F8FE792E09D
:1001C0000E941F0561E080E00E94330288E291E016
:1001D0000E944F0261E080E00E943302CE0101964E
:1001E0000E944F0261E086E00E9433028CE491E0BD
:1001F00063C04AE0BE016F5F7F4F80E090E00E94E5
:100200001F0561E080E00E94330288E291E00E94D5
:100210004F0261E080E00E943302CE0101960E940D
:100220004F0261E086E00E94330289E391E044C01E
:100230004AE0BE016F5F7F4F81E091E00E941F05A1
:1002400061E080E00E94330288E291E00E944F0268
:1002500061E080E00E943302CE0101960E944F02CD
:1002600061E086E00E94330282E491E025C04AE02A
:10027000BE016F5F7F4F8AE991E00E941F0561E038
:1002800080E00E94330288E291E00E944F0261E028
:1002900080E00E943302CE0101960E944F0261E08D
:1002A00086E00E94330287E491E006C061E080E0CE
:1002B0000E94330288E291E00E944F028091800107
:1002C000909181010817190709F446C00F3F83E098
:1002D000180709F441C0013081E0180721F168F4E2
:1002E00001151105C9F003361105B1F580E691E05D
:1002F0000E944F038FE391E023C00A3981E0180781
:10030000C9F00F3782E0180739F588E791E00E94BD
:100310004F038CE491E014C083E591E00E944F0309
:1003200089E391E00DC088E691E00E944F0382E4EA
:1003300091E006C080E791E00E944F0387E491E0DE
:100340000E944F038BE591E00E944F038AE00E94D8
:100350003A038DE00E943A031093810100938001DB
:100360000F900F900F900F90DF91CF91FF91EF9131
:10037000BF91AF919F918F917F916F915F914F91BD
:100380003F912F911F910F910F900FBE0F901F90D3
:100390001895299A85E08A95F1F700002998089523
:1003A000CF93C82F662311F0289A01C02898549A39
:1003B000559A569A579A5F985E985D985C98C7FDD3
:1003C0005F9AC6FD5E9AC5FD5D9AC4FD5C9A0E9467
:1003D000C9015F985E985D985C98C3FD5F9AC2FD05
:1003E0005E9AC1FD5D9AC0FD5C9A0E94C9015C9A4B
:1003F0005D9A5E9A5F9A8FE39FE10197F1F700C0E3
:100400000000CF91089528985D9A54985598569871
:100410005798299A85E08A95F1F700004C9B02C015
:1004200080E101C080E04D9980624E9980644F99CF
:100430008068299895E09A95F1F70000299A95E04F
:100440009A95F1F700004C9981604D9982604E9920
:1004500084604F9988602998089560E00C94D001D9
:1004600061E00C94D001611102C0805801C0805439
:100470000C942D020E94030287FDFCCF85E18A9532
:10048000F1F700000E94030290E0089581E00C94CF
:100490002D0282E00C942D0261E00C94D001CF93E8
:1004A000DF93EC018991882319F00E944C02FACF66
:1004B000DF91CF910895CF93DF93FC018491EF01F9
:1004C0002196882321F00E944C02FE01F7CFDF9194
:1004D000CF910895CF93C82F209A559A219A549A74
:1004E000559A569A579A8FEF99EF0197F1F700C0F6
:1004F00000005D9A5C9A0E94C9018FE19EE4019719
:10050000F1F700C000000E94C9018FEF90E0019751
:10051000F1F700C000000E94C9018FEF90E0019741
:10052000F1F700C000005C980E94C9018FEF90E0D5
:100530000197F1F700C0000088E20E942D0288E0D8
:100540000E942D020E94460286E00E942D028C2FFE
:10055000CF910C942D021F920F920FB60F9211247F
:100560002F938F939F93EF93FF938091C00090916F
:10057000C6008C71E0918401EF5FEF7120918301DF
:10058000E21739F0E0938401F0E0E957FE4F9083E1
:1005900001C082E090918201892B80938201FF91BA
:1005A000EF919F918F912F910F900FBE0F901F9001
:1005B00018951F920F920FB60F9211248F939F934D
:1005C000EF93FF939091860180918501981769F0D0
:1005D000E0918501EF5FEF71E0938501F0E0E9556F
:1005E000FE4F80818093C60005C08091C1008F7D41
:1005F0008093C100FF91EF919F918F910F900FBE5B
:100600000F901F90189510928601109285011092FC
:1006100084011092830197FF03C022E02093C00061
:1006200090789093C5008093C40088E98093C100BE
:1006300086E08093C20008959091840180918301A7
:100640009817A9F0909183019F5F9F71E92FF0E0C7
:10065000E957FE4F2081809182019093830110928F
:10066000820190E0982F8827820F911D089580E0E5
:1006700091E00895909186019F5F9F71209185017F
:100680009217E1F3E92FF0E0E955FE4F8083909354
:1006900086018091C10080628093C1000895CF934C
:1006A000DF93EC018991882319F00E943A03FACF75
:1006B000DF91CF910895CF93DF93FC018491EF01F7
:1006C0002196882321F00E943A03FE01F7CFDF91A3
:1006D000CF910895FC01408121E030E001C0220F5C
:1006E0006A95EAF7242B20830895FC01808121E09C
:1006F00030E001C0220F6A95EAF7209582238083BB
:100700008181282321830895FC01808121E030E04C
:1007100001C0220F6A95EAF7922F90958923808372
:100720008181282B21830895FC01808121E030E024
:1007300001C0220F6A95EAF7442311F0282B02C06A
:100740002095282320830895FC01408121E030E09A
:1007500001C0220F6A95EAF7242720830895FC013F
:10076000208181E090E001C0880F6A95EAF782233A
:100770000895811131C06330A9F050F4662379F0F7
:10078000613001F585B58B7F85BD85B582601FC061
:10079000653071F06630B1F485B584600CC085B504
:1007A0008B7F09C085B58B7F85BD85B5826006C00E
:1007B00085B5846009C085BD85B58D7F85BD85B54E
:1007C000816008C085B58B7F85BD85B58D7F85BD72
:1007D00085B58E7F85BD08958130D9F4633099F059
:1007E00040F4662369F0613009F041C080918100D6
:1007F0001EC0653059F06630D1F5809181001DC072
:100800008091810012C08091810013C0809181008D
:1008100012C0862F90E08730910548F5FC01EC5C12
:10082000FF4F809181000C9419058B7F07C08B7F4F
:100830000CC08B7F11C084601DC0846080938100D8
:10084000809181008D7F0DC08460809381008091B4
:100850008100826014C08460809381008091810057
:100860008260809381008091810081600DC08091C1
:1008700081008B7F80938100809181008D7F8093A8
:100880008100809181008E7F809381000895811185
:100890000CC080916E00662321F0613011F48160FC
:1008A00001C08E7F80936E000895813061F4809145
:1008B0006F00662321F0613011F4816001C08E7FEA
:1008C00080936F00089580917000662321F061305D
:1008D00011F4816001C08E7F80937000089541E023
:1008E00067E08BE290E00E94940385E08A95F1F73F
:1008F000000040E067E08BE290E00E94940385E016
:100900008A95F1F700000895EF92FF920F931F93DD
:10091000CF93DF9300D0CDB7DEB7E82FF0E0EC5FE8
:10092000FE4F80818983E62FF0E0E050FF4F808109
:100930008A8307E010E0EE24E394F12C4981C7019B
:10094000002E01C0880F0A94EAF7482360E085E290
:1009500090E00E9494030E946F040150110970F707
:1009600007E010E0EE24E394F12C4A81C701002E49
:1009700001C0880F0A94EAF7482360E085E290E01E
:100980000E9494030E946F040150110970F741E026
:1009900064E08BE290E00E94940385E08A95F1F791
:1009A000000040E064E08BE290E00E9494030F902E
:1009B0000F90DF91CF911F910F91FF90EF900895CD
:1009C0008CE00E946A020E9446028EE091E00E9442
:1009D0004F0280917C00806480937C0080917C0039
:1009E0008F7780937C0080917C00807F80937C0057
:1009F00080917A00806880937A0080917A00886084
:100A000080937A0080917A00876080937A0063E017
:100A100081E00E94B90361E081E00E94470487E61B
:100A200090E00E940303789489E191E00E944F03D3
:100A3000FFCFEE0FFF1F0590F491E02D0994BB2727
:100A40004A3031F4992322F4BDE2909581959F4F6D
:100A50000C942B05BB27FB015527AA27880F991F4C
:100A6000AA1FA41710F0A41B83955051B9F7A05DDD
:100A7000AA3308F0A95DA193009779F7B111B1935A
:100A80001192CB010C944405DC01FC01672F71919C
:100A90007723E1F7329704C07C916D937083629164
:0C0AA000AE17BF07C8F30895F894FFCF0D
:100AAC0008040201C0F9A4B0999282F880984144DC
:100ABC00432056414C55453A0055415254207465DB
:100ACC007374696E670D0A002020202020202020DE
:100ADC002020202020202020005249474854005537
:100AEC005000444F574E004C4546540053454C451E
:100AFC004354001B5B343B33326D001B5B306D0089
:100B0C001B5B343B33366D001B5B343B32396D0061
:100B1C001B5B343B34316D001B5B343B32386D0056
:00000001FF
