:100000000C9434000C943E000C943E000C943E0082
:100010000C943E000C943E000C943E000C943E0068
:100020000C943E000C943E000C943E000C943E0058
:100030000C943E000C943E000C943E000C943E0048
:100040000C943E000C943E000C943E000C943E0038
:100050000C943E000C943E000C943E000C943E0028
:100060000C943E000C943E0011241FBECFEFD8E04C
:10007000DEBFCDBF0E948F000C94C5000C94000021
:10008000FC01408121E030E001C0220F6A95EAF7CF
:10009000242B20830895FC01808121E030E001C001
:1000A000220F6A95EAF72095822380838181282395
:1000B00021830895FC01808121E030E001C0220FFE
:1000C0006A95EAF7922F9095892380838181282B66
:1000D00021830895FC01808121E030E001C0220FDE
:1000E0006A95EAF7442311F0282B02C020952823B3
:1000F00020830895FC01408121E030E001C0220FFF
:100100006A95EAF7242720830895FC01208181E085
:1001100090E001C0880F6A95EAF78223089565E0B0
:1001200084E290E00E94400060E084E290E00E945F
:10013000400062E08AE290E00E945A0040E065E000
:1001400085E290E00E946A0040E060E085E290E095
:100150000E946A0062E089E290E00E9485008111BD
:10016000F9CF65E085E290E00E947A0060E085E2E8
:1001700090E00E947A002FEF83EC99E021508040BC
:0E0180009040E1F700C00000E5CFF894FFCFFB
:00000001FF
